{
  "address": "0x9b188bBa2Ab5159A6cA42A90CDfd58d204E6C8B2",
  "abi": [
    {
      "inputs": [
        {
          "internalType": "address",
          "name": "priceFeedAddress",
          "type": "address"
        }
      ],
      "stateMutability": "nonpayable",
      "type": "constructor"
    },
    {
      "inputs": [],
      "name": "fund",
      "outputs": [],
      "stateMutability": "payable",
      "type": "function"
    },
    {
      "inputs": [
        {
          "internalType": "address",
          "name": "",
          "type": "address"
        }
      ],
      "name": "funderToAmount",
      "outputs": [
        {
          "internalType": "uint256",
          "name": "",
          "type": "uint256"
        }
      ],
      "stateMutability": "view",
      "type": "function"
    },
    {
      "inputs": [
        {
          "internalType": "uint256",
          "name": "",
          "type": "uint256"
        }
      ],
      "name": "funders",
      "outputs": [
        {
          "internalType": "address",
          "name": "",
          "type": "address"
        }
      ],
      "stateMutability": "view",
      "type": "function"
    },
    {
      "inputs": [],
      "name": "owner",
      "outputs": [
        {
          "internalType": "address",
          "name": "",
          "type": "address"
        }
      ],
      "stateMutability": "view",
      "type": "function"
    },
    {
      "inputs": [],
      "name": "priceFeed",
      "outputs": [
        {
          "internalType": "contract AggregatorV3Interface",
          "name": "",
          "type": "address"
        }
      ],
      "stateMutability": "view",
      "type": "function"
    },
    {
      "inputs": [],
      "name": "withdraw",
      "outputs": [],
      "stateMutability": "nonpayable",
      "type": "function"
    }
  ],
  "transactionHash": "0x73077c8f76f46c46a1f763db959e3ffac09c0021f12f243225e2b99613293f54",
  "args": [
    "0xD4a33860578De61DBAbDc8BFdb98FD742fA7028e"
  ],
  "numDeployments": 1,
  "solcInputHash": "d7f287773e9c4e8cf077a3810ae614fa",
  "bytecode": "0x60806040526802b5e3af16b188000060045534801561001d57600080fd5b5060405162000ff038038062000ff08339818101604052810190610041919061012c565b33600260006101000a81548173ffffffffffffffffffffffffffffffffffffffff021916908373ffffffffffffffffffffffffffffffffffffffff16021790555080600360006101000a81548173ffffffffffffffffffffffffffffffffffffffff021916908373ffffffffffffffffffffffffffffffffffffffff16021790555050610159565b600080fd5b600073ffffffffffffffffffffffffffffffffffffffff82169050919050565b60006100f9826100ce565b9050919050565b610109816100ee565b811461011457600080fd5b50565b60008151905061012681610100565b92915050565b600060208284031215610142576101416100c9565b5b600061015084828501610117565b91505092915050565b610e8780620001696000396000f3fe6080604052600436106100555760003560e01c80633ccfd60b1461005a5780634407e1e814610071578063741bef1a146100ae5780638da5cb5b146100d9578063b60d428814610104578063dc0d3dff1461010e575b600080fd5b34801561006657600080fd5b5061006f61014b565b005b34801561007d57600080fd5b5061009860048036038101906100939190610753565b610390565b6040516100a59190610799565b60405180910390f35b3480156100ba57600080fd5b506100c36103a8565b6040516100d09190610813565b60405180910390f35b3480156100e557600080fd5b506100ee6103ce565b6040516100fb919061083d565b60405180910390f35b61010c6103f4565b005b34801561011a57600080fd5b5061013560048036038101906101309190610884565b61052e565b604051610142919061083d565b60405180910390f35b600260009054906101000a900473ffffffffffffffffffffffffffffffffffffffff1673ffffffffffffffffffffffffffffffffffffffff163373ffffffffffffffffffffffffffffffffffffffff16146101db576040517f08c379a00000000000000000000000000000000000000000000000000000000081526004016101d29061090e565b60405180910390fd5b60003373ffffffffffffffffffffffffffffffffffffffff16476040516102019061095f565b60006040518083038185875af1925050503d806000811461023e576040519150601f19603f3d011682016040523d82523d6000602084013e610243565b606091505b5050905080610287576040517f08c379a000000000000000000000000000000000000000000000000000000000815260040161027e906109c0565b60405180910390fd5b60005b60008054905081101561032c576000600160008084815481106102b0576102af6109e0565b5b9060005260206000200160009054906101000a900473ffffffffffffffffffffffffffffffffffffffff1673ffffffffffffffffffffffffffffffffffffffff1673ffffffffffffffffffffffffffffffffffffffff16815260200190815260200160002081905550808061032490610a3e565b91505061028a565b50600067ffffffffffffffff81111561034857610347610a87565b5b6040519080825280602002602001820160405280156103765781602001602082028036833780820191505090505b506000908051906020019061038c929190610649565b5050565b60016020528060005260406000206000915090505481565b600360009054906101000a900473ffffffffffffffffffffffffffffffffffffffff1681565b600260009054906101000a900473ffffffffffffffffffffffffffffffffffffffff1681565b670de0b6b3a7640000610432600360009054906101000a900473ffffffffffffffffffffffffffffffffffffffff163461056d90919063ffffffff16565b1015610473576040517f08c379a000000000000000000000000000000000000000000000000000000000815260040161046a90610b02565b60405180910390fd5b6000339080600181540180825580915050600190039060005260206000200160009091909190916101000a81548173ffffffffffffffffffffffffffffffffffffffff021916908373ffffffffffffffffffffffffffffffffffffffff16021790555034600160003373ffffffffffffffffffffffffffffffffffffffff1673ffffffffffffffffffffffffffffffffffffffff16815260200190815260200160002060008282546105259190610b22565b92505081905550565b6000818154811061053e57600080fd5b906000526020600020016000915054906101000a900473ffffffffffffffffffffffffffffffffffffffff1681565b600080610579836105a9565b90506000670de0b6b3a764000085836105929190610b78565b61059c9190610c01565b9050809250505092915050565b6000808273ffffffffffffffffffffffffffffffffffffffff1663feaf968c6040518163ffffffff1660e01b815260040160a06040518083038186803b1580156105f257600080fd5b505afa158015610606573d6000803e3d6000fd5b505050506040513d601f19601f8201168201806040525081019061062a9190610cbf565b5050509150506402540be400816106419190610d3a565b915050919050565b8280548282559060005260206000209081019282156106c2579160200282015b828111156106c15782518260006101000a81548173ffffffffffffffffffffffffffffffffffffffff021916908373ffffffffffffffffffffffffffffffffffffffff16021790555091602001919060010190610669565b5b5090506106cf91906106d3565b5090565b5b808211156106ec5760008160009055506001016106d4565b5090565b600080fd5b600073ffffffffffffffffffffffffffffffffffffffff82169050919050565b6000610720826106f5565b9050919050565b61073081610715565b811461073b57600080fd5b50565b60008135905061074d81610727565b92915050565b600060208284031215610769576107686106f0565b5b60006107778482850161073e565b91505092915050565b6000819050919050565b61079381610780565b82525050565b60006020820190506107ae600083018461078a565b92915050565b6000819050919050565b60006107d96107d46107cf846106f5565b6107b4565b6106f5565b9050919050565b60006107eb826107be565b9050919050565b60006107fd826107e0565b9050919050565b61080d816107f2565b82525050565b60006020820190506108286000830184610804565b92915050565b61083781610715565b82525050565b6000602082019050610852600083018461082e565b92915050565b61086181610780565b811461086c57600080fd5b50565b60008135905061087e81610858565b92915050565b60006020828403121561089a576108996106f0565b5b60006108a88482850161086f565b91505092915050565b600082825260208201905092915050565b7f55206e6f2041444d2c204220476f6e6521000000000000000000000000000000600082015250565b60006108f86011836108b1565b9150610903826108c2565b602082019050919050565b60006020820190508181036000830152610927816108eb565b9050919050565b600081905092915050565b50565b600061094960008361092e565b915061095482610939565b600082019050919050565b600061096a8261093c565b9150819050919050565b7f43616c6c204661696c6564210000000000000000000000000000000000000000600082015250565b60006109aa600c836108b1565b91506109b582610974565b602082019050919050565b600060208201905081810360008301526109d98161099d565b9050919050565b7f4e487b7100000000000000000000000000000000000000000000000000000000600052603260045260246000fd5b7f4e487b7100000000000000000000000000000000000000000000000000000000600052601160045260246000fd5b6000610a4982610780565b91507fffffffffffffffffffffffffffffffffffffffffffffffffffffffffffffffff821415610a7c57610a7b610a0f565b5b600182019050919050565b7f4e487b7100000000000000000000000000000000000000000000000000000000600052604160045260246000fd5b7f53656e64206d6f72650000000000000000000000000000000000000000000000600082015250565b6000610aec6009836108b1565b9150610af782610ab6565b602082019050919050565b60006020820190508181036000830152610b1b81610adf565b9050919050565b6000610b2d82610780565b9150610b3883610780565b9250827fffffffffffffffffffffffffffffffffffffffffffffffffffffffffffffffff03821115610b6d57610b6c610a0f565b5b828201905092915050565b6000610b8382610780565b9150610b8e83610780565b9250817fffffffffffffffffffffffffffffffffffffffffffffffffffffffffffffffff0483118215151615610bc757610bc6610a0f565b5b828202905092915050565b7f4e487b7100000000000000000000000000000000000000000000000000000000600052601260045260246000fd5b6000610c0c82610780565b9150610c1783610780565b925082610c2757610c26610bd2565b5b828204905092915050565b600069ffffffffffffffffffff82169050919050565b610c5181610c32565b8114610c5c57600080fd5b50565b600081519050610c6e81610c48565b92915050565b6000819050919050565b610c8781610c74565b8114610c9257600080fd5b50565b600081519050610ca481610c7e565b92915050565b600081519050610cb981610858565b92915050565b600080600080600060a08688031215610cdb57610cda6106f0565b5b6000610ce988828901610c5f565b9550506020610cfa88828901610c95565b9450506040610d0b88828901610caa565b9350506060610d1c88828901610caa565b9250506080610d2d88828901610c5f565b9150509295509295909350565b6000610d4582610c74565b9150610d5083610c74565b9250827f7fffffffffffffffffffffffffffffffffffffffffffffffffffffffffffffff0482116000841360008413161615610d8f57610d8e610a0f565b5b817f80000000000000000000000000000000000000000000000000000000000000000583126000841260008413161615610dcc57610dcb610a0f565b5b827f80000000000000000000000000000000000000000000000000000000000000000582126000841360008412161615610e0957610e08610a0f565b5b827f7fffffffffffffffffffffffffffffffffffffffffffffffffffffffffffffff0582126000841260008412161615610e4657610e45610a0f565b5b82820290509291505056fea26469706673582212203fe45b76551b576ce36759e105c20ee8ef7380296c0f342b6ba76d4dbb58dde064736f6c63430008080033",
  "devdoc": {
    "kind": "dev",
    "methods": {},
    "version": 1
  },
  "userdoc": {
    "kind": "user",
    "methods": {},
    "version": 1
  },
  "storageLayout": {
    "storage": [
      {
        "astId": 54,
        "contract": "contracts/FundMe.sol:FundMe",
        "label": "funders",
        "offset": 0,
        "slot": "0",
        "type": "t_array(t_address)dyn_storage"
      },
      {
        "astId": 58,
        "contract": "contracts/FundMe.sol:FundMe",
        "label": "funderToAmount",
        "offset": 0,
        "slot": "1",
        "type": "t_mapping(t_address,t_uint256)"
      },
      {
        "astId": 60,
        "contract": "contracts/FundMe.sol:FundMe",
        "label": "owner",
        "offset": 0,
        "slot": "2",
        "type": "t_address"
      },
      {
        "astId": 63,
        "contract": "contracts/FundMe.sol:FundMe",
        "label": "priceFeed",
        "offset": 0,
        "slot": "3",
        "type": "t_contract(AggregatorV3Interface)45"
      },
      {
        "astId": 87,
        "contract": "contracts/FundMe.sol:FundMe",
        "label": "minimumUsd",
        "offset": 0,
        "slot": "4",
        "type": "t_uint256"
      }
    ],
    "types": {
      "t_address": {
        "encoding": "inplace",
        "label": "address",
        "numberOfBytes": "20"
      },
      "t_array(t_address)dyn_storage": {
        "base": "t_address",
        "encoding": "dynamic_array",
        "label": "address[]",
        "numberOfBytes": "32"
      },
      "t_contract(AggregatorV3Interface)45": {
        "encoding": "inplace",
        "label": "contract AggregatorV3Interface",
        "numberOfBytes": "20"
      },
      "t_mapping(t_address,t_uint256)": {
        "encoding": "mapping",
        "key": "t_address",
        "label": "mapping(address => uint256)",
        "numberOfBytes": "32",
        "value": "t_uint256"
      },
      "t_uint256": {
        "encoding": "inplace",
        "label": "uint256",
        "numberOfBytes": "32"
      }
    }
  }
}